{
  "_format": "hh-sol-artifact-1",
  "contractName": "CrowdFunding",
  "sourceName": "contracts/CrowdFunding.sol",
  "abi": [
    {
      "inputs": [
        {
          "internalType": "uint256",
          "name": "",
          "type": "uint256"
        }
      ],
      "name": "campaigns",
      "outputs": [
        {
          "internalType": "address",
          "name": "owner",
          "type": "address"
        },
        {
          "internalType": "string",
          "name": "title",
          "type": "string"
        },
        {
          "internalType": "string",
          "name": "description",
          "type": "string"
        },
        {
          "internalType": "uint256",
          "name": "target",
          "type": "uint256"
        },
        {
          "internalType": "uint256",
          "name": "deadline",
          "type": "uint256"
        },
        {
          "internalType": "uint256",
          "name": "amountCollected",
          "type": "uint256"
        },
        {
          "internalType": "string",
          "name": "image",
          "type": "string"
        }
      ],
      "stateMutability": "view",
      "type": "function"
    },
    {
      "inputs": [
        {
          "internalType": "address",
          "name": "_owner",
          "type": "address"
        },
        {
          "internalType": "string",
          "name": "_title",
          "type": "string"
        },
        {
          "internalType": "string",
          "name": "_description",
          "type": "string"
        },
        {
          "internalType": "uint256",
          "name": "_target",
          "type": "uint256"
        },
        {
          "internalType": "uint256",
          "name": "_deadline",
          "type": "uint256"
        },
        {
          "internalType": "string",
          "name": "_image",
          "type": "string"
        }
      ],
      "name": "createCampaign",
      "outputs": [
        {
          "internalType": "uint256",
          "name": "",
          "type": "uint256"
        }
      ],
      "stateMutability": "nonpayable",
      "type": "function"
    },
    {
      "inputs": [
        {
          "internalType": "uint256",
          "name": "_id",
          "type": "uint256"
        }
      ],
      "name": "donateToCampaign",
      "outputs": [],
      "stateMutability": "payable",
      "type": "function"
    },
    {
      "inputs": [],
      "name": "getCampaigns",
      "outputs": [
        {
          "components": [
            {
              "internalType": "address",
              "name": "owner",
              "type": "address"
            },
            {
              "internalType": "string",
              "name": "title",
              "type": "string"
            },
            {
              "internalType": "string",
              "name": "description",
              "type": "string"
            },
            {
              "internalType": "uint256",
              "name": "target",
              "type": "uint256"
            },
            {
              "internalType": "uint256",
              "name": "deadline",
              "type": "uint256"
            },
            {
              "internalType": "uint256",
              "name": "amountCollected",
              "type": "uint256"
            },
            {
              "internalType": "string",
              "name": "image",
              "type": "string"
            },
            {
              "internalType": "address[]",
              "name": "donators",
              "type": "address[]"
            },
            {
              "internalType": "uint256[]",
              "name": "donations",
              "type": "uint256[]"
            }
          ],
          "internalType": "struct CrowdFunding.Campaign[]",
          "name": "",
          "type": "tuple[]"
        }
      ],
      "stateMutability": "view",
      "type": "function"
    },
    {
      "inputs": [
        {
          "internalType": "uint256",
          "name": "_id",
          "type": "uint256"
        }
      ],
      "name": "getDonators",
      "outputs": [
        {
          "internalType": "address[]",
          "name": "",
          "type": "address[]"
        },
        {
          "internalType": "uint256[]",
          "name": "",
          "type": "uint256[]"
        }
      ],
      "stateMutability": "view",
      "type": "function"
    },
    {
      "inputs": [],
      "name": "numberOfCampaigns",
      "outputs": [
        {
          "internalType": "uint256",
          "name": "",
          "type": "uint256"
        }
      ],
      "stateMutability": "view",
      "type": "function"
    }
  ],
  "bytecode": "0x6080604052600060015534801561001557600080fd5b50611784806100256000396000f3fe6080604052600436106100555760003560e01c806307ca140d1461005a5780630fa91fa914610085578063141961bc146100c357806342a4fda8146101065780639943e3a114610122578063a6b036331461015f575b600080fd5b34801561006657600080fd5b5061006f61018a565b60405161007c9190611389565b60405180910390f35b34801561009157600080fd5b506100ac60048036038101906100a79190610db7565b610190565b6040516100ba9291906112f0565b60405180910390f35b3480156100cf57600080fd5b506100ea60048036038101906100e59190610db7565b6102a0565b6040516100fd979695949392919061126c565b60405180910390f35b610120600480360381019061011b9190610db7565b61049a565b005b34801561012e57600080fd5b5061014960048036038101906101449190610ce6565b61060d565b6040516101569190611389565b60405180910390f35b34801561016b57600080fd5b50610174610746565b6040516101819190611327565b60405180910390f35b60015481565b6060806000808481526020019081526020016000206007016000808581526020019081526020016000206008018180548060200260200160405190810160405280929190818152602001828054801561023e57602002820191906000526020600020905b8160009054906101000a900473ffffffffffffffffffffffffffffffffffffffff1673ffffffffffffffffffffffffffffffffffffffff16815260200190600101908083116101f4575b505050505091508080548060200260200160405190810160405280929190818152602001828054801561029057602002820191906000526020600020905b81548152602001906001019080831161027c575b5050505050905091509150915091565b60006020528060005260406000206000915090508060000160009054906101000a900473ffffffffffffffffffffffffffffffffffffffff16908060010180546102e990611607565b80601f016020809104026020016040519081016040528092919081815260200182805461031590611607565b80156103625780601f1061033757610100808354040283529160200191610362565b820191906000526020600020905b81548152906001019060200180831161034557829003601f168201915b50505050509080600201805461037790611607565b80601f01602080910402602001604051908101604052809291908181526020018280546103a390611607565b80156103f05780601f106103c5576101008083540402835291602001916103f0565b820191906000526020600020905b8154815290600101906020018083116103d357829003601f168201915b50505050509080600301549080600401549080600501549080600601805461041790611607565b80601f016020809104026020016040519081016040528092919081815260200182805461044390611607565b80156104905780601f1061046557610100808354040283529160200191610490565b820191906000526020600020905b81548152906001019060200180831161047357829003601f168201915b5050505050905087565b600034116104dd576040517f08c379a00000000000000000000000000000000000000000000000000000000081526004016104d490611369565b60405180910390fd5b6000806000838152602001908152602001600020905080600701339080600181540180825580915050600190039060005260206000200160009091909190916101000a81548173ffffffffffffffffffffffffffffffffffffffff021916908373ffffffffffffffffffffffffffffffffffffffff160217905550806008013490806001815401808255809150506001900390600052602060002001600090919091909150553481600501600082825461059791906114ff565b925050819055508060000160009054906101000a900473ffffffffffffffffffffffffffffffffffffffff1673ffffffffffffffffffffffffffffffffffffffff166108fc349081150290604051600060405180830381858888f19350505050158015610608573d6000803e3d6000fd5b505050565b6000428311610651576040517f08c379a000000000000000000000000000000000000000000000000000000000815260040161064890611349565b60405180910390fd5b600080600060015481526020019081526020016000209050878160000160006101000a81548173ffffffffffffffffffffffffffffffffffffffff021916908373ffffffffffffffffffffffffffffffffffffffff160217905550868160010190805190602001906106c4929190610b4f565b50858160020190805190602001906106dd929190610b4f565b508481600301819055508381600401819055506000816005018190555082816006019080519060200190610712929190610b4f565b506001600081548092919061072690611639565b9190505550600180546107399190611555565b9150509695505050505050565b6060600060015467ffffffffffffffff81111561078c577f4e487b7100000000000000000000000000000000000000000000000000000000600052604160045260246000fd5b6040519080825280602002602001820160405280156107c557816020015b6107b2610bd5565b8152602001906001900390816107aa5790505b50905060005b600154811015610b4757600080600083815260200190815260200160002090506040518061012001604052808260000160009054906101000a900473ffffffffffffffffffffffffffffffffffffffff1673ffffffffffffffffffffffffffffffffffffffff16815260200182600101805461084690611607565b80601f016020809104026020016040519081016040528092919081815260200182805461087290611607565b80156108bf5780601f10610894576101008083540402835291602001916108bf565b820191906000526020600020905b8154815290600101906020018083116108a257829003601f168201915b505050505081526020018260020180546108d890611607565b80601f016020809104026020016040519081016040528092919081815260200182805461090490611607565b80156109515780601f1061092657610100808354040283529160200191610951565b820191906000526020600020905b81548152906001019060200180831161093457829003601f168201915b5050505050815260200182600301548152602001826004015481526020018260050154815260200182600601805461098890611607565b80601f01602080910402602001604051908101604052809291908181526020018280546109b490611607565b8015610a015780601f106109d657610100808354040283529160200191610a01565b820191906000526020600020905b8154815290600101906020018083116109e457829003601f168201915b5050505050815260200182600701805480602002602001604051908101604052809291908181526020018280548015610a8f57602002820191906000526020600020905b8160009054906101000a900473ffffffffffffffffffffffffffffffffffffffff1673ffffffffffffffffffffffffffffffffffffffff1681526020019060010190808311610a45575b5050505050815260200182600801805480602002602001604051908101604052809291908181526020018280548015610ae757602002820191906000526020600020905b815481526020019060010190808311610ad3575b5050505050815250838381518110610b28577f4e487b7100000000000000000000000000000000000000000000000000000000600052603260045260246000fd5b6020026020010181905250508080610b3f90611639565b9150506107cb565b508091505090565b828054610b5b90611607565b90600052602060002090601f016020900481019282610b7d5760008555610bc4565b82601f10610b9657805160ff1916838001178555610bc4565b82800160010185558215610bc4579182015b82811115610bc3578251825591602001919060010190610ba8565b5b509050610bd19190610c37565b5090565b604051806101200160405280600073ffffffffffffffffffffffffffffffffffffffff16815260200160608152602001606081526020016000815260200160008152602001600081526020016060815260200160608152602001606081525090565b5b80821115610c50576000816000905550600101610c38565b5090565b6000610c67610c62846113d5565b6113a4565b905082815260208101848484011115610c7f57600080fd5b610c8a8482856115c5565b509392505050565b600081359050610ca181611720565b92915050565b600082601f830112610cb857600080fd5b8135610cc8848260208601610c54565b91505092915050565b600081359050610ce081611737565b92915050565b60008060008060008060c08789031215610cff57600080fd5b6000610d0d89828a01610c92565b965050602087013567ffffffffffffffff811115610d2a57600080fd5b610d3689828a01610ca7565b955050604087013567ffffffffffffffff811115610d5357600080fd5b610d5f89828a01610ca7565b9450506060610d7089828a01610cd1565b9350506080610d8189828a01610cd1565b92505060a087013567ffffffffffffffff811115610d9e57600080fd5b610daa89828a01610ca7565b9150509295509295509295565b600060208284031215610dc957600080fd5b6000610dd784828501610cd1565b91505092915050565b6000610dec8383610e24565b60208301905092915050565b6000610e04838361116d565b905092915050565b6000610e18838361124e565b60208301905092915050565b610e2d81611589565b82525050565b610e3c81611589565b82525050565b6000610e4d82611435565b610e578185611488565b9350610e6283611405565b8060005b83811015610e93578151610e7a8882610de0565b9750610e8583611461565b925050600181019050610e66565b5085935050505092915050565b6000610eab82611435565b610eb58185611499565b9350610ec083611405565b8060005b83811015610ef1578151610ed88882610de0565b9750610ee383611461565b925050600181019050610ec4565b5085935050505092915050565b6000610f0982611440565b610f1381856114aa565b935083602082028501610f2585611415565b8060005b85811015610f615784840389528151610f428582610df8565b9450610f4d8361146e565b925060208a01995050600181019050610f29565b50829750879550505050505092915050565b6000610f7e8261144b565b610f8881856114bb565b9350610f9383611425565b8060005b83811015610fc4578151610fab8882610e0c565b9750610fb68361147b565b925050600181019050610f97565b5085935050505092915050565b6000610fdc8261144b565b610fe681856114cc565b9350610ff183611425565b8060005b838110156110225781516110098882610e0c565b97506110148361147b565b925050600181019050610ff5565b5085935050505092915050565b600061103a82611456565b61104481856114dd565b93506110548185602086016115d4565b61105d8161170f565b840191505092915050565b600061107382611456565b61107d81856114ee565b935061108d8185602086016115d4565b6110968161170f565b840191505092915050565b60006110ae602c836114ee565b91507f54686520646561646c696e652073686f756c642062652061206461746520696e60008301527f20746865206675747572652e00000000000000000000000000000000000000006020830152604082019050919050565b60006111146027836114ee565b91507f446f6e6174696f6e20616d6f756e74206d75737420626520677265617465722060008301527f7468616e20302e000000000000000000000000000000000000000000000000006020830152604082019050919050565b6000610120830160008301516111866000860182610e24565b506020830151848203602086015261119e828261102f565b915050604083015184820360408601526111b8828261102f565b91505060608301516111cd606086018261124e565b5060808301516111e0608086018261124e565b5060a08301516111f360a086018261124e565b5060c083015184820360c086015261120b828261102f565b91505060e083015184820360e08601526112258282610e42565b9150506101008301518482036101008601526112418282610f73565b9150508091505092915050565b611257816115bb565b82525050565b611266816115bb565b82525050565b600060e082019050611281600083018a610e33565b81810360208301526112938189611068565b905081810360408301526112a78188611068565b90506112b6606083018761125d565b6112c3608083018661125d565b6112d060a083018561125d565b81810360c08301526112e28184611068565b905098975050505050505050565b6000604082019050818103600083015261130a8185610ea0565b9050818103602083015261131e8184610fd1565b90509392505050565b600060208201905081810360008301526113418184610efe565b905092915050565b60006020820190508181036000830152611362816110a1565b9050919050565b6000602082019050818103600083015261138281611107565b9050919050565b600060208201905061139e600083018461125d565b92915050565b6000604051905081810181811067ffffffffffffffff821117156113cb576113ca6116e0565b5b8060405250919050565b600067ffffffffffffffff8211156113f0576113ef6116e0565b5b601f19601f8301169050602081019050919050565b6000819050602082019050919050565b6000819050602082019050919050565b6000819050602082019050919050565b600081519050919050565b600081519050919050565b600081519050919050565b600081519050919050565b6000602082019050919050565b6000602082019050919050565b6000602082019050919050565b600082825260208201905092915050565b600082825260208201905092915050565b600082825260208201905092915050565b600082825260208201905092915050565b600082825260208201905092915050565b600082825260208201905092915050565b600082825260208201905092915050565b600061150a826115bb565b9150611515836115bb565b9250827fffffffffffffffffffffffffffffffffffffffffffffffffffffffffffffffff0382111561154a57611549611682565b5b828201905092915050565b6000611560826115bb565b915061156b836115bb565b92508282101561157e5761157d611682565b5b828203905092915050565b60006115948261159b565b9050919050565b600073ffffffffffffffffffffffffffffffffffffffff82169050919050565b6000819050919050565b82818337600083830152505050565b60005b838110156115f25780820151818401526020810190506115d7565b83811115611601576000848401525b50505050565b6000600282049050600182168061161f57607f821691505b60208210811415611633576116326116b1565b5b50919050565b6000611644826115bb565b91507fffffffffffffffffffffffffffffffffffffffffffffffffffffffffffffffff82141561167757611676611682565b5b600182019050919050565b7f4e487b7100000000000000000000000000000000000000000000000000000000600052601160045260246000fd5b7f4e487b7100000000000000000000000000000000000000000000000000000000600052602260045260246000fd5b7f4e487b7100000000000000000000000000000000000000000000000000000000600052604160045260246000fd5b6000601f19601f8301169050919050565b61172981611589565b811461173457600080fd5b50565b611740816115bb565b811461174b57600080fd5b5056fea2646970667358221220d7252fe1a11fbb13bc0045370076842c6fe1e8fd01423ace549089967489f86964736f6c63430008000033",
  "linkReferences": {},
  "deployedLinkReferences": {}
}