{
  "_format": "hh-sol-artifact-1",
  "contractName": "CrowdFunding",
  "sourceName": "contracts/CrowdFunding.sol",
  "abi": [
    {
      "inputs": [
        {
          "internalType": "uint256",
          "name": "",
          "type": "uint256"
        }
      ],
      "name": "campaigns",
      "outputs": [
        {
          "internalType": "address",
          "name": "owner",
          "type": "address"
        },
        {
          "internalType": "string",
          "name": "title",
          "type": "string"
        },
        {
          "internalType": "string",
          "name": "description",
          "type": "string"
        },
        {
          "internalType": "uint256",
          "name": "target",
          "type": "uint256"
        },
        {
          "internalType": "uint256",
          "name": "deadline",
          "type": "uint256"
        },
        {
          "internalType": "uint256",
          "name": "amountCollected",
          "type": "uint256"
        },
        {
          "internalType": "string",
          "name": "image",
          "type": "string"
        }
      ],
      "stateMutability": "view",
      "type": "function"
    },
    {
      "inputs": [
        {
          "internalType": "address",
          "name": "_owner",
          "type": "address"
        },
        {
          "internalType": "string",
          "name": "_title",
          "type": "string"
        },
        {
          "internalType": "string",
          "name": "_description",
          "type": "string"
        },
        {
          "internalType": "uint256",
          "name": "_target",
          "type": "uint256"
        },
        {
          "internalType": "uint256",
          "name": "_deadline",
          "type": "uint256"
        },
        {
          "internalType": "string",
          "name": "_image",
          "type": "string"
        }
      ],
      "name": "createCampaign",
      "outputs": [
        {
          "internalType": "uint256",
          "name": "",
          "type": "uint256"
        }
      ],
      "stateMutability": "nonpayable",
      "type": "function"
    },
    {
      "inputs": [
        {
          "internalType": "uint256",
          "name": "_id",
          "type": "uint256"
        }
      ],
      "name": "donateToCampaign",
      "outputs": [],
      "stateMutability": "payable",
      "type": "function"
    },
    {
      "inputs": [],
      "name": "getCampaigns",
      "outputs": [
        {
          "components": [
            {
              "internalType": "address",
              "name": "owner",
              "type": "address"
            },
            {
              "internalType": "string",
              "name": "title",
              "type": "string"
            },
            {
              "internalType": "string",
              "name": "description",
              "type": "string"
            },
            {
              "internalType": "uint256",
              "name": "target",
              "type": "uint256"
            },
            {
              "internalType": "uint256",
              "name": "deadline",
              "type": "uint256"
            },
            {
              "internalType": "uint256",
              "name": "amountCollected",
              "type": "uint256"
            },
            {
              "internalType": "string",
              "name": "image",
              "type": "string"
            },
            {
              "internalType": "address[]",
              "name": "donators",
              "type": "address[]"
            },
            {
              "internalType": "uint256[]",
              "name": "donations",
              "type": "uint256[]"
            }
          ],
          "internalType": "struct CrowdFunding.Campaign[]",
          "name": "",
          "type": "tuple[]"
        }
      ],
      "stateMutability": "view",
      "type": "function"
    },
    {
      "inputs": [
        {
          "internalType": "uint256",
          "name": "_id",
          "type": "uint256"
        }
      ],
      "name": "getDonators",
      "outputs": [
        {
          "internalType": "address[]",
          "name": "",
          "type": "address[]"
        },
        {
          "internalType": "uint256[]",
          "name": "",
          "type": "uint256[]"
        }
      ],
      "stateMutability": "view",
      "type": "function"
    },
    {
      "inputs": [],
      "name": "numberOfCampaigns",
      "outputs": [
        {
          "internalType": "uint256",
          "name": "",
          "type": "uint256"
        }
      ],
      "stateMutability": "view",
      "type": "function"
    }
  ],
  "bytecode": "0x6080604052600060015534801561001557600080fd5b50611741806100256000396000f3fe6080604052600436106100555760003560e01c806307ca140d1461005a5780630fa91fa914610085578063141961bc146100c357806342a4fda8146101065780639943e3a114610122578063a6b036331461015f575b600080fd5b34801561006657600080fd5b5061006f61018a565b60405161007c919061133b565b60405180910390f35b34801561009157600080fd5b506100ac60048036038101906100a79190610dc0565b610190565b6040516100ba9291906112c2565b60405180910390f35b3480156100cf57600080fd5b506100ea60048036038101906100e59190610dc0565b6102a0565b6040516100fd979695949392919061123e565b60405180910390f35b610120600480360381019061011b9190610dc0565b61049a565b005b34801561012e57600080fd5b5061014960048036038101906101449190610cef565b6105fa565b604051610156919061133b565b60405180910390f35b34801561016b57600080fd5b50610174610736565b60405161018191906112f9565b60405180910390f35b60015481565b6060806000808481526020019081526020016000206007016000808581526020019081526020016000206008018180548060200260200160405190810160405280929190818152602001828054801561023e57602002820191906000526020600020905b8160009054906101000a900473ffffffffffffffffffffffffffffffffffffffff1673ffffffffffffffffffffffffffffffffffffffff16815260200190600101908083116101f4575b505050505091508080548060200260200160405190810160405280929190818152602001828054801561029057602002820191906000526020600020905b81548152602001906001019080831161027c575b5050505050905091509150915091565b60006020528060005260406000206000915090508060000160009054906101000a900473ffffffffffffffffffffffffffffffffffffffff16908060010180546102e9906115c4565b80601f0160208091040260200160405190810160405280929190818152602001828054610315906115c4565b80156103625780601f1061033757610100808354040283529160200191610362565b820191906000526020600020905b81548152906001019060200180831161034557829003601f168201915b505050505090806002018054610377906115c4565b80601f01602080910402602001604051908101604052809291908181526020018280546103a3906115c4565b80156103f05780601f106103c5576101008083540402835291602001916103f0565b820191906000526020600020905b8154815290600101906020018083116103d357829003601f168201915b505050505090806003015490806004015490806005015490806006018054610417906115c4565b80601f0160208091040260200160405190810160405280929190818152602001828054610443906115c4565b80156104905780601f1061046557610100808354040283529160200191610490565b820191906000526020600020905b81548152906001019060200180831161047357829003601f168201915b5050505050905087565b60003490506000806000848152602001908152602001600020905080600701339080600181540180825580915050600190039060005260206000200160009091909190916101000a81548173ffffffffffffffffffffffffffffffffffffffff021916908373ffffffffffffffffffffffffffffffffffffffff1602179055508060080182908060018154018082558091505060019003906000526020600020016000909190919091505560008160000160009054906101000a900473ffffffffffffffffffffffffffffffffffffffff1673ffffffffffffffffffffffffffffffffffffffff168360405161058f90611229565b60006040518083038185875af1925050503d80600081146105cc576040519150601f19603f3d011682016040523d82523d6000602084013e6105d1565b606091505b5050905080156105f4578282600501546105eb91906114bc565b82600501819055505b50505050565b6000806000806001548152602001908152602001600020905042816004015410610659576040517f08c379a00000000000000000000000000000000000000000000000000000000081526004016106509061131b565b60405180910390fd5b878160000160006101000a81548173ffffffffffffffffffffffffffffffffffffffff021916908373ffffffffffffffffffffffffffffffffffffffff160217905550868160010190805190602001906106b4929190610b58565b50858160020190805190602001906106cd929190610b58565b508481600301819055508381600401819055506000816005018190555082816006019080519060200190610702929190610b58565b5060016000815480929190610716906115f6565b9190505550600180546107299190611512565b9150509695505050505050565b6060600060015467ffffffffffffffff81111561077c577f4e487b7100000000000000000000000000000000000000000000000000000000600052604160045260246000fd5b6040519080825280602002602001820160405280156107b557816020015b6107a2610bde565b81526020019060019003908161079a5790505b50905060005b600154811015610b50576000806000838152602001908152602001600020905080604051806101200160405290816000820160009054906101000a900473ffffffffffffffffffffffffffffffffffffffff1673ffffffffffffffffffffffffffffffffffffffff1673ffffffffffffffffffffffffffffffffffffffff16815260200160018201805461084e906115c4565b80601f016020809104026020016040519081016040528092919081815260200182805461087a906115c4565b80156108c75780601f1061089c576101008083540402835291602001916108c7565b820191906000526020600020905b8154815290600101906020018083116108aa57829003601f168201915b505050505081526020016002820180546108e0906115c4565b80601f016020809104026020016040519081016040528092919081815260200182805461090c906115c4565b80156109595780601f1061092e57610100808354040283529160200191610959565b820191906000526020600020905b81548152906001019060200180831161093c57829003601f168201915b50505050508152602001600382015481526020016004820154815260200160058201548152602001600682018054610990906115c4565b80601f01602080910402602001604051908101604052809291908181526020018280546109bc906115c4565b8015610a095780601f106109de57610100808354040283529160200191610a09565b820191906000526020600020905b8154815290600101906020018083116109ec57829003601f168201915b5050505050815260200160078201805480602002602001604051908101604052809291908181526020018280548015610a9757602002820191906000526020600020905b8160009054906101000a900473ffffffffffffffffffffffffffffffffffffffff1673ffffffffffffffffffffffffffffffffffffffff1681526020019060010190808311610a4d575b5050505050815260200160088201805480602002602001604051908101604052809291908181526020018280548015610aef57602002820191906000526020600020905b815481526020019060010190808311610adb575b505050505081525050838381518110610b31577f4e487b7100000000000000000000000000000000000000000000000000000000600052603260045260246000fd5b6020026020010181905250508080610b48906115f6565b9150506107bb565b508091505090565b828054610b64906115c4565b90600052602060002090601f016020900481019282610b865760008555610bcd565b82601f10610b9f57805160ff1916838001178555610bcd565b82800160010185558215610bcd579182015b82811115610bcc578251825591602001919060010190610bb1565b5b509050610bda9190610c40565b5090565b604051806101200160405280600073ffffffffffffffffffffffffffffffffffffffff16815260200160608152602001606081526020016000815260200160008152602001600081526020016060815260200160608152602001606081525090565b5b80821115610c59576000816000905550600101610c41565b5090565b6000610c70610c6b84611387565b611356565b905082815260208101848484011115610c8857600080fd5b610c93848285611582565b509392505050565b600081359050610caa816116dd565b92915050565b600082601f830112610cc157600080fd5b8135610cd1848260208601610c5d565b91505092915050565b600081359050610ce9816116f4565b92915050565b60008060008060008060c08789031215610d0857600080fd5b6000610d1689828a01610c9b565b965050602087013567ffffffffffffffff811115610d3357600080fd5b610d3f89828a01610cb0565b955050604087013567ffffffffffffffff811115610d5c57600080fd5b610d6889828a01610cb0565b9450506060610d7989828a01610cda565b9350506080610d8a89828a01610cda565b92505060a087013567ffffffffffffffff811115610da757600080fd5b610db389828a01610cb0565b9150509295509295509295565b600060208284031215610dd257600080fd5b6000610de084828501610cda565b91505092915050565b6000610df58383610e2d565b60208301905092915050565b6000610e0d838361112a565b905092915050565b6000610e21838361120b565b60208301905092915050565b610e3681611546565b82525050565b610e4581611546565b82525050565b6000610e56826113e7565b610e60818561143a565b9350610e6b836113b7565b8060005b83811015610e9c578151610e838882610de9565b9750610e8e83611413565b925050600181019050610e6f565b5085935050505092915050565b6000610eb4826113e7565b610ebe818561144b565b9350610ec9836113b7565b8060005b83811015610efa578151610ee18882610de9565b9750610eec83611413565b925050600181019050610ecd565b5085935050505092915050565b6000610f12826113f2565b610f1c818561145c565b935083602082028501610f2e856113c7565b8060005b85811015610f6a5784840389528151610f4b8582610e01565b9450610f5683611420565b925060208a01995050600181019050610f32565b50829750879550505050505092915050565b6000610f87826113fd565b610f91818561146d565b9350610f9c836113d7565b8060005b83811015610fcd578151610fb48882610e15565b9750610fbf8361142d565b925050600181019050610fa0565b5085935050505092915050565b6000610fe5826113fd565b610fef818561147e565b9350610ffa836113d7565b8060005b8381101561102b5781516110128882610e15565b975061101d8361142d565b925050600181019050610ffe565b5085935050505092915050565b600061104382611408565b61104d818561149a565b935061105d818560208601611591565b611066816116cc565b840191505092915050565b600061107c82611408565b61108681856114ab565b9350611096818560208601611591565b61109f816116cc565b840191505092915050565b60006110b7602c836114ab565b91507f54686520646561646c696e652073686f756c642062652061206461746520696e60008301527f20746865206675747572652e00000000000000000000000000000000000000006020830152604082019050919050565b600061111d60008361148f565b9150600082019050919050565b6000610120830160008301516111436000860182610e2d565b506020830151848203602086015261115b8282611038565b915050604083015184820360408601526111758282611038565b915050606083015161118a606086018261120b565b50608083015161119d608086018261120b565b5060a08301516111b060a086018261120b565b5060c083015184820360c08601526111c88282611038565b91505060e083015184820360e08601526111e28282610e4b565b9150506101008301518482036101008601526111fe8282610f7c565b9150508091505092915050565b61121481611578565b82525050565b61122381611578565b82525050565b600061123482611110565b9150819050919050565b600060e082019050611253600083018a610e3c565b81810360208301526112658189611071565b905081810360408301526112798188611071565b9050611288606083018761121a565b611295608083018661121a565b6112a260a083018561121a565b81810360c08301526112b48184611071565b905098975050505050505050565b600060408201905081810360008301526112dc8185610ea9565b905081810360208301526112f08184610fda565b90509392505050565b600060208201905081810360008301526113138184610f07565b905092915050565b60006020820190508181036000830152611334816110aa565b9050919050565b6000602082019050611350600083018461121a565b92915050565b6000604051905081810181811067ffffffffffffffff8211171561137d5761137c61169d565b5b8060405250919050565b600067ffffffffffffffff8211156113a2576113a161169d565b5b601f19601f8301169050602081019050919050565b6000819050602082019050919050565b6000819050602082019050919050565b6000819050602082019050919050565b600081519050919050565b600081519050919050565b600081519050919050565b600081519050919050565b6000602082019050919050565b6000602082019050919050565b6000602082019050919050565b600082825260208201905092915050565b600082825260208201905092915050565b600082825260208201905092915050565b600082825260208201905092915050565b600082825260208201905092915050565b600081905092915050565b600082825260208201905092915050565b600082825260208201905092915050565b60006114c782611578565b91506114d283611578565b9250827fffffffffffffffffffffffffffffffffffffffffffffffffffffffffffffffff038211156115075761150661163f565b5b828201905092915050565b600061151d82611578565b915061152883611578565b92508282101561153b5761153a61163f565b5b828203905092915050565b600061155182611558565b9050919050565b600073ffffffffffffffffffffffffffffffffffffffff82169050919050565b6000819050919050565b82818337600083830152505050565b60005b838110156115af578082015181840152602081019050611594565b838111156115be576000848401525b50505050565b600060028204905060018216806115dc57607f821691505b602082108114156115f0576115ef61166e565b5b50919050565b600061160182611578565b91507fffffffffffffffffffffffffffffffffffffffffffffffffffffffffffffffff8214156116345761163361163f565b5b600182019050919050565b7f4e487b7100000000000000000000000000000000000000000000000000000000600052601160045260246000fd5b7f4e487b7100000000000000000000000000000000000000000000000000000000600052602260045260246000fd5b7f4e487b7100000000000000000000000000000000000000000000000000000000600052604160045260246000fd5b6000601f19601f8301169050919050565b6116e681611546565b81146116f157600080fd5b50565b6116fd81611578565b811461170857600080fd5b5056fea2646970667358221220c7159d9ca44c5526ede4d8970dd6ae606cef4707ae366d7a8dd3ff99ce0eed3364736f6c63430008000033",
  "linkReferences": {},
  "deployedLinkReferences": {}
}