{
  "_format": "hh-sol-artifact-1",
  "contractName": "CrowdFunding",
  "sourceName": "contracts/CrowdFunding.sol",
  "abi": [
    {
      "inputs": [
        {
          "internalType": "uint256",
          "name": "",
          "type": "uint256"
        }
      ],
      "name": "campaigns",
      "outputs": [
        {
          "internalType": "address",
          "name": "owner",
          "type": "address"
        },
        {
          "internalType": "string",
          "name": "title",
          "type": "string"
        },
        {
          "internalType": "string",
          "name": "description",
          "type": "string"
        },
        {
          "internalType": "uint256",
          "name": "target",
          "type": "uint256"
        },
        {
          "internalType": "uint256",
          "name": "deadline",
          "type": "uint256"
        },
        {
          "internalType": "uint256",
          "name": "amountCollected",
          "type": "uint256"
        },
        {
          "internalType": "string",
          "name": "image",
          "type": "string"
        },
        {
          "internalType": "string",
          "name": "aadharNo",
          "type": "string"
        }
      ],
      "stateMutability": "view",
      "type": "function"
    },
    {
      "inputs": [
        {
          "internalType": "address",
          "name": "_owner",
          "type": "address"
        },
        {
          "internalType": "string",
          "name": "_title",
          "type": "string"
        },
        {
          "internalType": "string",
          "name": "_description",
          "type": "string"
        },
        {
          "internalType": "uint256",
          "name": "_target",
          "type": "uint256"
        },
        {
          "internalType": "uint256",
          "name": "_deadline",
          "type": "uint256"
        },
        {
          "internalType": "string",
          "name": "_image",
          "type": "string"
        },
        {
          "internalType": "string",
          "name": "_aadharNo",
          "type": "string"
        }
      ],
      "name": "createCampaign",
      "outputs": [
        {
          "internalType": "uint256",
          "name": "",
          "type": "uint256"
        }
      ],
      "stateMutability": "nonpayable",
      "type": "function"
    },
    {
      "inputs": [
        {
          "internalType": "uint256",
          "name": "_id",
          "type": "uint256"
        }
      ],
      "name": "donateToCampaign",
      "outputs": [],
      "stateMutability": "payable",
      "type": "function"
    },
    {
      "inputs": [],
      "name": "getCampaigns",
      "outputs": [
        {
          "components": [
            {
              "internalType": "address",
              "name": "owner",
              "type": "address"
            },
            {
              "internalType": "string",
              "name": "title",
              "type": "string"
            },
            {
              "internalType": "string",
              "name": "description",
              "type": "string"
            },
            {
              "internalType": "uint256",
              "name": "target",
              "type": "uint256"
            },
            {
              "internalType": "uint256",
              "name": "deadline",
              "type": "uint256"
            },
            {
              "internalType": "uint256",
              "name": "amountCollected",
              "type": "uint256"
            },
            {
              "internalType": "string",
              "name": "image",
              "type": "string"
            },
            {
              "internalType": "string",
              "name": "aadharNo",
              "type": "string"
            },
            {
              "internalType": "address[]",
              "name": "donators",
              "type": "address[]"
            },
            {
              "internalType": "uint256[]",
              "name": "donations",
              "type": "uint256[]"
            }
          ],
          "internalType": "struct CrowdFunding.Campaign[]",
          "name": "",
          "type": "tuple[]"
        }
      ],
      "stateMutability": "view",
      "type": "function"
    },
    {
      "inputs": [
        {
          "internalType": "uint256",
          "name": "_id",
          "type": "uint256"
        }
      ],
      "name": "getDonators",
      "outputs": [
        {
          "internalType": "address[]",
          "name": "",
          "type": "address[]"
        },
        {
          "internalType": "uint256[]",
          "name": "",
          "type": "uint256[]"
        }
      ],
      "stateMutability": "view",
      "type": "function"
    },
    {
      "inputs": [],
      "name": "numberOfCampaigns",
      "outputs": [
        {
          "internalType": "uint256",
          "name": "",
          "type": "uint256"
        }
      ],
      "stateMutability": "view",
      "type": "function"
    }
  ],
  "bytecode": "0x6080604052600060015534801561001557600080fd5b506118e2806100256000396000f3fe6080604052600436106100555760003560e01c806307ca140d1461005a5780630b9124c2146100855780630fa91fa9146100c2578063141961bc1461010057806342a4fda814610144578063a6b0363314610160575b600080fd5b34801561006657600080fd5b5061006f61018b565b60405161007c91906114dc565b60405180910390f35b34801561009157600080fd5b506100ac60048036038101906100a79190610e31565b610191565b6040516100b991906114dc565b60405180910390f35b3480156100ce57600080fd5b506100e960048036038101906100e49190610f2f565b6102e7565b6040516100f7929190611463565b60405180910390f35b34801561010c57600080fd5b5061012760048036038101906101229190610f2f565b6103f7565b60405161013b9897969594939291906113c9565b60405180910390f35b61015e60048036038101906101599190610f2f565b61067f565b005b34801561016c57600080fd5b506101756107df565b604051610182919061149a565b60405180910390f35b60015481565b60008060008060015481526020019081526020016000209050428160040154106101f0576040517f08c379a00000000000000000000000000000000000000000000000000000000081526004016101e7906114bc565b60405180910390fd5b888160000160006101000a81548173ffffffffffffffffffffffffffffffffffffffff021916908373ffffffffffffffffffffffffffffffffffffffff1602179055508781600101908051906020019061024b929190610c93565b5086816002019080519060200190610264929190610c93565b508581600301819055508481600401819055506000816005018190555083816006019080519060200190610299929190610c93565b50828160070190805190602001906102b2929190610c93565b50600160008154809291906102c690611797565b9190505550600180546102d991906116b3565b915050979650505050505050565b6060806000808481526020019081526020016000206008016000808581526020019081526020016000206009018180548060200260200160405190810160405280929190818152602001828054801561039557602002820191906000526020600020905b8160009054906101000a900473ffffffffffffffffffffffffffffffffffffffff1673ffffffffffffffffffffffffffffffffffffffff168152602001906001019080831161034b575b50505050509150808054806020026020016040519081016040528092919081815260200182805480156103e757602002820191906000526020600020905b8154815260200190600101908083116103d3575b5050505050905091509150915091565b60006020528060005260406000206000915090508060000160009054906101000a900473ffffffffffffffffffffffffffffffffffffffff169080600101805461044090611765565b80601f016020809104026020016040519081016040528092919081815260200182805461046c90611765565b80156104b95780601f1061048e576101008083540402835291602001916104b9565b820191906000526020600020905b81548152906001019060200180831161049c57829003601f168201915b5050505050908060020180546104ce90611765565b80601f01602080910402602001604051908101604052809291908181526020018280546104fa90611765565b80156105475780601f1061051c57610100808354040283529160200191610547565b820191906000526020600020905b81548152906001019060200180831161052a57829003601f168201915b50505050509080600301549080600401549080600501549080600601805461056e90611765565b80601f016020809104026020016040519081016040528092919081815260200182805461059a90611765565b80156105e75780601f106105bc576101008083540402835291602001916105e7565b820191906000526020600020905b8154815290600101906020018083116105ca57829003601f168201915b5050505050908060070180546105fc90611765565b80601f016020809104026020016040519081016040528092919081815260200182805461062890611765565b80156106755780601f1061064a57610100808354040283529160200191610675565b820191906000526020600020905b81548152906001019060200180831161065857829003601f168201915b5050505050905088565b60003490506000806000848152602001908152602001600020905080600801339080600181540180825580915050600190039060005260206000200160009091909190916101000a81548173ffffffffffffffffffffffffffffffffffffffff021916908373ffffffffffffffffffffffffffffffffffffffff1602179055508060090182908060018154018082558091505060019003906000526020600020016000909190919091505560008160000160009054906101000a900473ffffffffffffffffffffffffffffffffffffffff1673ffffffffffffffffffffffffffffffffffffffff1683604051610774906113b4565b60006040518083038185875af1925050503d80600081146107b1576040519150601f19603f3d011682016040523d82523d6000602084013e6107b6565b606091505b5050905080156107d9578282600501546107d0919061165d565b82600501819055505b50505050565b6060600060015467ffffffffffffffff811115610825577f4e487b7100000000000000000000000000000000000000000000000000000000600052604160045260246000fd5b60405190808252806020026020018201604052801561085e57816020015b61084b610d19565b8152602001906001900390816108435790505b50905060005b600154811015610c8b576000806000838152602001908152602001600020905080604051806101400160405290816000820160009054906101000a900473ffffffffffffffffffffffffffffffffffffffff1673ffffffffffffffffffffffffffffffffffffffff1673ffffffffffffffffffffffffffffffffffffffff1681526020016001820180546108f790611765565b80601f016020809104026020016040519081016040528092919081815260200182805461092390611765565b80156109705780601f1061094557610100808354040283529160200191610970565b820191906000526020600020905b81548152906001019060200180831161095357829003601f168201915b5050505050815260200160028201805461098990611765565b80601f01602080910402602001604051908101604052809291908181526020018280546109b590611765565b8015610a025780601f106109d757610100808354040283529160200191610a02565b820191906000526020600020905b8154815290600101906020018083116109e557829003601f168201915b50505050508152602001600382015481526020016004820154815260200160058201548152602001600682018054610a3990611765565b80601f0160208091040260200160405190810160405280929190818152602001828054610a6590611765565b8015610ab25780601f10610a8757610100808354040283529160200191610ab2565b820191906000526020600020905b815481529060010190602001808311610a9557829003601f168201915b50505050508152602001600782018054610acb90611765565b80601f0160208091040260200160405190810160405280929190818152602001828054610af790611765565b8015610b445780601f10610b1957610100808354040283529160200191610b44565b820191906000526020600020905b815481529060010190602001808311610b2757829003601f168201915b5050505050815260200160088201805480602002602001604051908101604052809291908181526020018280548015610bd257602002820191906000526020600020905b8160009054906101000a900473ffffffffffffffffffffffffffffffffffffffff1673ffffffffffffffffffffffffffffffffffffffff1681526020019060010190808311610b88575b5050505050815260200160098201805480602002602001604051908101604052809291908181526020018280548015610c2a57602002820191906000526020600020905b815481526020019060010190808311610c16575b505050505081525050838381518110610c6c577f4e487b7100000000000000000000000000000000000000000000000000000000600052603260045260246000fd5b6020026020010181905250508080610c8390611797565b915050610864565b508091505090565b828054610c9f90611765565b90600052602060002090601f016020900481019282610cc15760008555610d08565b82601f10610cda57805160ff1916838001178555610d08565b82800160010185558215610d08579182015b82811115610d07578251825591602001919060010190610cec565b5b509050610d159190610d82565b5090565b604051806101400160405280600073ffffffffffffffffffffffffffffffffffffffff1681526020016060815260200160608152602001600081526020016000815260200160008152602001606081526020016060815260200160608152602001606081525090565b5b80821115610d9b576000816000905550600101610d83565b5090565b6000610db2610dad84611528565b6114f7565b905082815260208101848484011115610dca57600080fd5b610dd5848285611723565b509392505050565b600081359050610dec8161187e565b92915050565b600082601f830112610e0357600080fd5b8135610e13848260208601610d9f565b91505092915050565b600081359050610e2b81611895565b92915050565b600080600080600080600060e0888a031215610e4c57600080fd5b6000610e5a8a828b01610ddd565b975050602088013567ffffffffffffffff811115610e7757600080fd5b610e838a828b01610df2565b965050604088013567ffffffffffffffff811115610ea057600080fd5b610eac8a828b01610df2565b9550506060610ebd8a828b01610e1c565b9450506080610ece8a828b01610e1c565b93505060a088013567ffffffffffffffff811115610eeb57600080fd5b610ef78a828b01610df2565b92505060c088013567ffffffffffffffff811115610f1457600080fd5b610f208a828b01610df2565b91505092959891949750929550565b600060208284031215610f4157600080fd5b6000610f4f84828501610e1c565b91505092915050565b6000610f648383610f9c565b60208301905092915050565b6000610f7c8383611299565b905092915050565b6000610f908383611396565b60208301905092915050565b610fa5816116e7565b82525050565b610fb4816116e7565b82525050565b6000610fc582611588565b610fcf81856115db565b9350610fda83611558565b8060005b8381101561100b578151610ff28882610f58565b9750610ffd836115b4565b925050600181019050610fde565b5085935050505092915050565b600061102382611588565b61102d81856115ec565b935061103883611558565b8060005b838110156110695781516110508882610f58565b975061105b836115b4565b92505060018101905061103c565b5085935050505092915050565b600061108182611593565b61108b81856115fd565b93508360208202850161109d85611568565b8060005b858110156110d957848403895281516110ba8582610f70565b94506110c5836115c1565b925060208a019950506001810190506110a1565b50829750879550505050505092915050565b60006110f68261159e565b611100818561160e565b935061110b83611578565b8060005b8381101561113c5781516111238882610f84565b975061112e836115ce565b92505060018101905061110f565b5085935050505092915050565b60006111548261159e565b61115e818561161f565b935061116983611578565b8060005b8381101561119a5781516111818882610f84565b975061118c836115ce565b92505060018101905061116d565b5085935050505092915050565b60006111b2826115a9565b6111bc818561163b565b93506111cc818560208601611732565b6111d58161186d565b840191505092915050565b60006111eb826115a9565b6111f5818561164c565b9350611205818560208601611732565b61120e8161186d565b840191505092915050565b6000611226602c8361164c565b91507f54686520646561646c696e652073686f756c642062652061206461746520696e60008301527f20746865206675747572652e00000000000000000000000000000000000000006020830152604082019050919050565b600061128c600083611630565b9150600082019050919050565b6000610140830160008301516112b26000860182610f9c565b50602083015184820360208601526112ca82826111a7565b915050604083015184820360408601526112e482826111a7565b91505060608301516112f96060860182611396565b50608083015161130c6080860182611396565b5060a083015161131f60a0860182611396565b5060c083015184820360c086015261133782826111a7565b91505060e083015184820360e086015261135182826111a7565b91505061010083015184820361010086015261136d8282610fba565b91505061012083015184820361012086015261138982826110eb565b9150508091505092915050565b61139f81611719565b82525050565b6113ae81611719565b82525050565b60006113bf8261127f565b9150819050919050565b6000610100820190506113df600083018b610fab565b81810360208301526113f1818a6111e0565b9050818103604083015261140581896111e0565b905061141460608301886113a5565b61142160808301876113a5565b61142e60a08301866113a5565b81810360c083015261144081856111e0565b905081810360e083015261145481846111e0565b90509998505050505050505050565b6000604082019050818103600083015261147d8185611018565b905081810360208301526114918184611149565b90509392505050565b600060208201905081810360008301526114b48184611076565b905092915050565b600060208201905081810360008301526114d581611219565b9050919050565b60006020820190506114f160008301846113a5565b92915050565b6000604051905081810181811067ffffffffffffffff8211171561151e5761151d61183e565b5b8060405250919050565b600067ffffffffffffffff8211156115435761154261183e565b5b601f19601f8301169050602081019050919050565b6000819050602082019050919050565b6000819050602082019050919050565b6000819050602082019050919050565b600081519050919050565b600081519050919050565b600081519050919050565b600081519050919050565b6000602082019050919050565b6000602082019050919050565b6000602082019050919050565b600082825260208201905092915050565b600082825260208201905092915050565b600082825260208201905092915050565b600082825260208201905092915050565b600082825260208201905092915050565b600081905092915050565b600082825260208201905092915050565b600082825260208201905092915050565b600061166882611719565b915061167383611719565b9250827fffffffffffffffffffffffffffffffffffffffffffffffffffffffffffffffff038211156116a8576116a76117e0565b5b828201905092915050565b60006116be82611719565b91506116c983611719565b9250828210156116dc576116db6117e0565b5b828203905092915050565b60006116f2826116f9565b9050919050565b600073ffffffffffffffffffffffffffffffffffffffff82169050919050565b6000819050919050565b82818337600083830152505050565b60005b83811015611750578082015181840152602081019050611735565b8381111561175f576000848401525b50505050565b6000600282049050600182168061177d57607f821691505b602082108114156117915761179061180f565b5b50919050565b60006117a282611719565b91507fffffffffffffffffffffffffffffffffffffffffffffffffffffffffffffffff8214156117d5576117d46117e0565b5b600182019050919050565b7f4e487b7100000000000000000000000000000000000000000000000000000000600052601160045260246000fd5b7f4e487b7100000000000000000000000000000000000000000000000000000000600052602260045260246000fd5b7f4e487b7100000000000000000000000000000000000000000000000000000000600052604160045260246000fd5b6000601f19601f8301169050919050565b611887816116e7565b811461189257600080fd5b50565b61189e81611719565b81146118a957600080fd5b5056fea2646970667358221220bd0e8c959e3fd9ba514ea3ce10575ab6304ca0f29bee4fab776b8c6be513492d64736f6c63430008000033",
  "linkReferences": {},
  "deployedLinkReferences": {}
}