{
  "_format": "hh-sol-artifact-1",
  "contractName": "Transactions",
  "sourceName": "contracts/Transactions.sol",
  "abi": [
    {
      "anonymous": false,
      "inputs": [
        {
          "indexed": false,
          "internalType": "address",
          "name": "from",
          "type": "address"
        },
        {
          "indexed": false,
          "internalType": "address",
          "name": "receiver",
          "type": "address"
        },
        {
          "indexed": false,
          "internalType": "uint256",
          "name": "amount",
          "type": "uint256"
        }
      ],
      "name": "Transfer",
      "type": "event"
    },
    {
      "inputs": [
        {
          "internalType": "address",
          "name": "receiver",
          "type": "address"
        },
        {
          "internalType": "uint256",
          "name": "amount",
          "type": "uint256"
        }
      ],
      "name": "addToBlockchain",
      "outputs": [],
      "stateMutability": "payable",
      "type": "function"
    },
    {
      "inputs": [],
      "name": "getBalance",
      "outputs": [
        {
          "internalType": "uint256",
          "name": "",
          "type": "uint256"
        }
      ],
      "stateMutability": "view",
      "type": "function"
    }
  ],
  "bytecode": "0x608060405234801561001057600080fd5b5061052f806100206000396000f3fe6080604052600436106100295760003560e01c806312065fe01461002e578063b64782e514610059575b600080fd5b34801561003a57600080fd5b50610043610075565b60405161005091906103a6565b60405180910390f35b610073600480360381019061006e9190610315565b6101a0565b005b6000806000905060005b600080549050811015610198573073ffffffffffffffffffffffffffffffffffffffff16600082815481106100dd577f4e487b7100000000000000000000000000000000000000000000000000000000600052603260045260246000fd5b906000526020600020906003020160010160009054906101000a900473ffffffffffffffffffffffffffffffffffffffff1673ffffffffffffffffffffffffffffffffffffffff1614156101855760008181548110610165577f4e487b7100000000000000000000000000000000000000000000000000000000600052603260045260246000fd5b9060005260206000209060030201600201548261018291906103c1565b91505b808061019090610453565b91505061007f565b508091505090565b600060405180606001604052803373ffffffffffffffffffffffffffffffffffffffff1681526020018473ffffffffffffffffffffffffffffffffffffffff16815260200183815250908060018154018082558091505060019003906000526020600020906003020160009091909190915060008201518160000160006101000a81548173ffffffffffffffffffffffffffffffffffffffff021916908373ffffffffffffffffffffffffffffffffffffffff16021790555060208201518160010160006101000a81548173ffffffffffffffffffffffffffffffffffffffff021916908373ffffffffffffffffffffffffffffffffffffffff1602179055506040820151816002015550507fddf252ad1be2c89b69c2b068fc378daa952ba7f163c4a11628f55a4df523b3ef3383836040516102df9392919061036f565b60405180910390a15050565b6000813590506102fa816104cb565b92915050565b60008135905061030f816104e2565b92915050565b6000806040838503121561032857600080fd5b6000610336858286016102eb565b925050602061034785828601610300565b9150509250929050565b61035a81610417565b82525050565b61036981610449565b82525050565b60006060820190506103846000830186610351565b6103916020830185610351565b61039e6040830184610360565b949350505050565b60006020820190506103bb6000830184610360565b92915050565b60006103cc82610449565b91506103d783610449565b9250827fffffffffffffffffffffffffffffffffffffffffffffffffffffffffffffffff0382111561040c5761040b61049c565b5b828201905092915050565b600061042282610429565b9050919050565b600073ffffffffffffffffffffffffffffffffffffffff82169050919050565b6000819050919050565b600061045e82610449565b91507fffffffffffffffffffffffffffffffffffffffffffffffffffffffffffffffff8214156104915761049061049c565b5b600182019050919050565b7f4e487b7100000000000000000000000000000000000000000000000000000000600052601160045260246000fd5b6104d481610417565b81146104df57600080fd5b50565b6104eb81610449565b81146104f657600080fd5b5056fea2646970667358221220b6928c5662a8cab7849de1da2630f7083dfa77f2a4f2f93affc9d34fb515cb3a64736f6c63430008000033",
  "linkReferences": {},
  "deployedLinkReferences": {}
}